{
  "contractName": "CoinDeltaBatchDepsoit",
  "abi": [
    {
      "inputs": [
        {
          "internalType": "bool",
          "name": "mainnet",
          "type": "bool"
        },
        {
          "internalType": "address",
          "name": "depositContract_",
          "type": "address"
        }
      ],
      "stateMutability": "nonpayable",
      "type": "constructor"
    },
    {
      "anonymous": false,
      "inputs": [
        {
          "indexed": false,
          "internalType": "address",
          "name": "from",
          "type": "address"
        },
        {
          "indexed": false,
          "internalType": "uint256",
          "name": "nodesAmount",
          "type": "uint256"
        }
      ],
      "name": "DepositEvent",
      "type": "event"
    },
    {
      "anonymous": false,
      "inputs": [
        {
          "indexed": true,
          "internalType": "address",
          "name": "previousOwner",
          "type": "address"
        },
        {
          "indexed": true,
          "internalType": "address",
          "name": "newOwner",
          "type": "address"
        }
      ],
      "name": "OwnershipTransferred",
      "type": "event"
    },
    {
      "anonymous": false,
      "inputs": [
        {
          "indexed": false,
          "internalType": "address",
          "name": "account",
          "type": "address"
        }
      ],
      "name": "Paused",
      "type": "event"
    },
    {
      "anonymous": false,
      "inputs": [
        {
          "indexed": false,
          "internalType": "address",
          "name": "account",
          "type": "address"
        }
      ],
      "name": "Unpaused",
      "type": "event"
    },
    {
      "inputs": [],
      "name": "collateral",
      "outputs": [
        {
          "internalType": "uint256",
          "name": "",
          "type": "uint256"
        }
      ],
      "stateMutability": "view",
      "type": "function"
    },
    {
      "inputs": [],
      "name": "credentialsLength",
      "outputs": [
        {
          "internalType": "uint256",
          "name": "",
          "type": "uint256"
        }
      ],
      "stateMutability": "view",
      "type": "function"
    },
    {
      "inputs": [],
      "name": "depositContract",
      "outputs": [
        {
          "internalType": "contract IDepositContract",
          "name": "",
          "type": "address"
        }
      ],
      "stateMutability": "view",
      "type": "function"
    },
    {
      "inputs": [],
      "name": "nodesMaxAmount",
      "outputs": [
        {
          "internalType": "uint256",
          "name": "",
          "type": "uint256"
        }
      ],
      "stateMutability": "view",
      "type": "function"
    },
    {
      "inputs": [],
      "name": "nodesMinAmount",
      "outputs": [
        {
          "internalType": "uint256",
          "name": "",
          "type": "uint256"
        }
      ],
      "stateMutability": "view",
      "type": "function"
    },
    {
      "inputs": [],
      "name": "owner",
      "outputs": [
        {
          "internalType": "address",
          "name": "",
          "type": "address"
        }
      ],
      "stateMutability": "view",
      "type": "function"
    },
    {
      "inputs": [],
      "name": "paused",
      "outputs": [
        {
          "internalType": "bool",
          "name": "",
          "type": "bool"
        }
      ],
      "stateMutability": "view",
      "type": "function"
    },
    {
      "inputs": [],
      "name": "pubkeyLength",
      "outputs": [
        {
          "internalType": "uint256",
          "name": "",
          "type": "uint256"
        }
      ],
      "stateMutability": "view",
      "type": "function"
    },
    {
      "inputs": [],
      "name": "renounceOwnership",
      "outputs": [],
      "stateMutability": "nonpayable",
      "type": "function"
    },
    {
      "inputs": [],
      "name": "signatureLength",
      "outputs": [
        {
          "internalType": "uint256",
          "name": "",
          "type": "uint256"
        }
      ],
      "stateMutability": "view",
      "type": "function"
    },
    {
      "inputs": [
        {
          "internalType": "address",
          "name": "newOwner",
          "type": "address"
        }
      ],
      "name": "transferOwnership",
      "outputs": [],
      "stateMutability": "nonpayable",
      "type": "function"
    },
    {
      "stateMutability": "payable",
      "type": "receive"
    },
    {
      "inputs": [
        {
          "internalType": "bytes[]",
          "name": "pubkeys",
          "type": "bytes[]"
        },
        {
          "internalType": "bytes[]",
          "name": "withdrawal_credentials",
          "type": "bytes[]"
        },
        {
          "internalType": "bytes[]",
          "name": "signatures",
          "type": "bytes[]"
        },
        {
          "internalType": "bytes32[]",
          "name": "deposit_data_roots",
          "type": "bytes32[]"
        }
      ],
      "name": "deposit",
      "outputs": [],
      "stateMutability": "payable",
      "type": "function"
    },
    {
      "inputs": [],
      "name": "pause",
      "outputs": [],
      "stateMutability": "nonpayable",
      "type": "function"
    },
    {
      "inputs": [],
      "name": "unpause",
      "outputs": [],
      "stateMutability": "nonpayable",
      "type": "function"
    }
  ],
  "bytecode": "0x608060405234801562000010575f80fd5b5060405162001bce38038062001bce8339818101604052810190620000369190620002e5565b60015f819055505f60015f6101000a81548160ff0219169083151502179055505f620000676200023f60201b60201c565b9050806001806101000a81548173ffffffffffffffffffffffffffffffffffffffff021916908373ffffffffffffffffffffffffffffffffffffffff1602179055508073ffffffffffffffffffffffffffffffffffffffff165f73ffffffffffffffffffffffffffffffffffffffff167f8be0079c531659141344cd1fd0a4f28419497f9722a3daafe3b4186f6b6457e060405160405180910390a350600115158215150362000167576f219ab540356cbb839cbe05303d7705fa60025f6101000a81548173ffffffffffffffffffffffffffffffffffffffff021916908373ffffffffffffffffffffffffffffffffffffffff16021790555062000237565b5f73ffffffffffffffffffffffffffffffffffffffff168173ffffffffffffffffffffffffffffffffffffffff1603620001f557738c5fecdc472e27bc447696f431e425d02dd46a8c60025f6101000a81548173ffffffffffffffffffffffffffffffffffffffff021916908373ffffffffffffffffffffffffffffffffffffffff16021790555062000236565b8060025f6101000a81548173ffffffffffffffffffffffffffffffffffffffff021916908373ffffffffffffffffffffffffffffffffffffffff1602179055505b5b50506200032a565b5f33905090565b5f80fd5b5f8115159050919050565b62000260816200024a565b81146200026b575f80fd5b50565b5f815190506200027e8162000255565b92915050565b5f73ffffffffffffffffffffffffffffffffffffffff82169050919050565b5f620002af8262000284565b9050919050565b620002c181620002a3565b8114620002cc575f80fd5b50565b5f81519050620002df81620002b6565b92915050565b5f8060408385031215620002fe57620002fd62000246565b5b5f6200030d858286016200026e565b92505060206200032085828601620002cf565b9150509250929050565b61189680620003385f395ff3fe6080604052600436106100e0575f3560e01c80638456cb591161007e578063d8dfeb4511610058578063d8dfeb451461027e578063e94ad65b146102a8578063f2fde38b146102d2578063f4fbdfac146102fa57610120565b80638456cb59146102145780638da5cb5b1461022a578063a5ab1d311461025457610120565b80634903e8be116100ba5780634903e8be1461018e5780634f498c73146101b85780635c975abb146101d4578063715018a6146101fe57610120565b80631b9a9323146101245780633f4ba83a1461014e57806343ba591d1461016457610120565b36610120576040517f08c379a000000000000000000000000000000000000000000000000000000000815260040161011790610d6e565b60405180910390fd5b5f80fd5b34801561012f575f80fd5b50610138610324565b6040516101459190610da4565b60405180910390f35b348015610159575f80fd5b50610162610329565b005b34801561016f575f80fd5b506101786103af565b6040516101859190610da4565b60405180910390f35b348015610199575f80fd5b506101a26103b4565b6040516101af9190610da4565b60405180910390f35b6101d260048036038101906101cd9190610e7b565b6103b9565b005b3480156101df575f80fd5b506101e86107c9565b6040516101f59190610f79565b60405180910390f35b348015610209575f80fd5b506102126107de565b005b34801561021f575f80fd5b50610228610916565b005b348015610235575f80fd5b5061023e61099c565b60405161024b9190610fd1565b60405180910390f35b34801561025f575f80fd5b506102686109c3565b6040516102759190610da4565b60405180910390f35b348015610289575f80fd5b506102926109c8565b60405161029f9190610da4565b60405180910390f35b3480156102b3575f80fd5b506102bc6109d5565b6040516102c99190611045565b60405180910390f35b3480156102dd575f80fd5b506102f860048036038101906102f39190611088565b6109fa565b005b348015610305575f80fd5b5061030e610ba1565b60405161031b9190610da4565b60405180910390f35b606081565b610331610ba6565b73ffffffffffffffffffffffffffffffffffffffff1661034f61099c565b73ffffffffffffffffffffffffffffffffffffffff16146103a5576040517f08c379a000000000000000000000000000000000000000000000000000000000815260040161039c906110fd565b60405180910390fd5b6103ad610bad565b565b606481565b603081565b6103c16107c9565b15610401576040517f08c379a00000000000000000000000000000000000000000000000000000000081526004016103f890611165565b60405180910390fd5b5f8888905090505f81118015610418575060648111155b610457576040517f08c379a000000000000000000000000000000000000000000000000000000000815260040161044e90611219565b60405180910390fd5b806801bc16d674ec80000061046c9190611264565b34146104ad576040517f08c379a00000000000000000000000000000000000000000000000000000000081526004016104a49061133b565b60405180910390fd5b80878790501480156104c157508085859050145b80156104cf57508083839050145b61050e576040517f08c379a0000000000000000000000000000000000000000000000000000000008152600401610505906113c9565b60405180910390fd5b5f5b818110156107845760308a8a8381811061052d5761052c6113e7565b5b905060200281019061053f9190611420565b905014610581576040517f08c379a0000000000000000000000000000000000000000000000000000000008152600401610578906114f2565b60405180910390fd5b6020888883818110610596576105956113e7565b5b90506020028101906105a89190611420565b9050146105ea576040517f08c379a00000000000000000000000000000000000000000000000000000000081526004016105e190611580565b60405180910390fd5b60608686838181106105ff576105fe6113e7565b5b90506020028101906106119190611420565b905014610653576040517f08c379a000000000000000000000000000000000000000000000000000000000815260040161064a9061160e565b60405180910390fd5b60025f9054906101000a900473ffffffffffffffffffffffffffffffffffffffff1673ffffffffffffffffffffffffffffffffffffffff1663228951186801bc16d674ec8000008c8c858181106106ad576106ac6113e7565b5b90506020028101906106bf9190611420565b8c8c878181106106d2576106d16113e7565b5b90506020028101906106e49190611420565b8c8c898181106106f7576106f66113e7565b5b90506020028101906107099190611420565b8c8c8b81811061071c5761071b6113e7565b5b905060200201356040518963ffffffff1660e01b8152600401610745979695949392919061169e565b5f604051808303818588803b15801561075c575f80fd5b505af115801561076e573d5f803e3d5ffd5b50505050508061077d906116fc565b9050610510565b507f2d8a08b6430a894aea608bcaa6013d5d3e263bc49110605e4d4ba76930ae5c2933826040516107b6929190611743565b60405180910390a1505050505050505050565b5f60015f9054906101000a900460ff16905090565b6107e6610ba6565b73ffffffffffffffffffffffffffffffffffffffff1661080461099c565b73ffffffffffffffffffffffffffffffffffffffff161461085a576040517f08c379a0000000000000000000000000000000000000000000000000000000008152600401610851906110fd565b60405180910390fd5b5f73ffffffffffffffffffffffffffffffffffffffff1660018054906101000a900473ffffffffffffffffffffffffffffffffffffffff1673ffffffffffffffffffffffffffffffffffffffff167f8be0079c531659141344cd1fd0a4f28419497f9722a3daafe3b4186f6b6457e060405160405180910390a35f6001806101000a81548173ffffffffffffffffffffffffffffffffffffffff021916908373ffffffffffffffffffffffffffffffffffffffff160217905550565b61091e610ba6565b73ffffffffffffffffffffffffffffffffffffffff1661093c61099c565b73ffffffffffffffffffffffffffffffffffffffff1614610992576040517f08c379a0000000000000000000000000000000000000000000000000000000008152600401610989906110fd565b60405180910390fd5b61099a610c4d565b565b5f60018054906101000a900473ffffffffffffffffffffffffffffffffffffffff16905090565b602081565b6801bc16d674ec80000081565b60025f9054906101000a900473ffffffffffffffffffffffffffffffffffffffff1681565b610a02610ba6565b73ffffffffffffffffffffffffffffffffffffffff16610a2061099c565b73ffffffffffffffffffffffffffffffffffffffff1614610a76576040517f08c379a0000000000000000000000000000000000000000000000000000000008152600401610a6d906110fd565b60405180910390fd5b5f73ffffffffffffffffffffffffffffffffffffffff168173ffffffffffffffffffffffffffffffffffffffff1603610ae4576040517f08c379a0000000000000000000000000000000000000000000000000000000008152600401610adb906117da565b60405180910390fd5b8073ffffffffffffffffffffffffffffffffffffffff1660018054906101000a900473ffffffffffffffffffffffffffffffffffffffff1673ffffffffffffffffffffffffffffffffffffffff167f8be0079c531659141344cd1fd0a4f28419497f9722a3daafe3b4186f6b6457e060405160405180910390a3806001806101000a81548173ffffffffffffffffffffffffffffffffffffffff021916908373ffffffffffffffffffffffffffffffffffffffff16021790555050565b600181565b5f33905090565b610bb56107c9565b610bf4576040517f08c379a0000000000000000000000000000000000000000000000000000000008152600401610beb90611842565b60405180910390fd5b5f60015f6101000a81548160ff0219169083151502179055507f5db9ee0a495bf2e6ff9c91a7834c1ba4fdd244a5e8aa4e537bd38aeae4b073aa610c36610ba6565b604051610c439190610fd1565b60405180910390a1565b610c556107c9565b15610c95576040517f08c379a0000000000000000000000000000000000000000000000000000000008152600401610c8c90611165565b60405180910390fd5b6001805f6101000a81548160ff0219169083151502179055507f62e78cea01bee320cd4e420270b5ea74000d11b0c9f74754ebdbfc544b05a258610cd7610ba6565b604051610ce49190610fd1565b60405180910390a1565b5f82825260208201905092915050565b7f436f696e44656c74614261746368446570736f69743a20646f206e6f742073655f8201527f6e6420455448206469726563746c792068657265000000000000000000000000602082015250565b5f610d58603483610cee565b9150610d6382610cfe565b604082019050919050565b5f6020820190508181035f830152610d8581610d4c565b9050919050565b5f819050919050565b610d9e81610d8c565b82525050565b5f602082019050610db75f830184610d95565b92915050565b5f80fd5b5f80fd5b5f80fd5b5f80fd5b5f80fd5b5f8083601f840112610de657610de5610dc5565b5b8235905067ffffffffffffffff811115610e0357610e02610dc9565b5b602083019150836020820283011115610e1f57610e1e610dcd565b5b9250929050565b5f8083601f840112610e3b57610e3a610dc5565b5b8235905067ffffffffffffffff811115610e5857610e57610dc9565b5b602083019150836020820283011115610e7457610e73610dcd565b5b9250929050565b5f805f805f805f806080898b031215610e9757610e96610dbd565b5b5f89013567ffffffffffffffff811115610eb457610eb3610dc1565b5b610ec08b828c01610dd1565b9850985050602089013567ffffffffffffffff811115610ee357610ee2610dc1565b5b610eef8b828c01610dd1565b9650965050604089013567ffffffffffffffff811115610f1257610f11610dc1565b5b610f1e8b828c01610dd1565b9450945050606089013567ffffffffffffffff811115610f4157610f40610dc1565b5b610f4d8b828c01610e26565b92509250509295985092959890939650565b5f8115159050919050565b610f7381610f5f565b82525050565b5f602082019050610f8c5f830184610f6a565b92915050565b5f73ffffffffffffffffffffffffffffffffffffffff82169050919050565b5f610fbb82610f92565b9050919050565b610fcb81610fb1565b82525050565b5f602082019050610fe45f830184610fc2565b92915050565b5f819050919050565b5f61100d61100861100384610f92565b610fea565b610f92565b9050919050565b5f61101e82610ff3565b9050919050565b5f61102f82611014565b9050919050565b61103f81611025565b82525050565b5f6020820190506110585f830184611036565b92915050565b61106781610fb1565b8114611071575f80fd5b50565b5f813590506110828161105e565b92915050565b5f6020828403121561109d5761109c610dbd565b5b5f6110aa84828501611074565b91505092915050565b7f4f776e61626c653a2063616c6c6572206973206e6f7420746865206f776e65725f82015250565b5f6110e7602083610cee565b91506110f2826110b3565b602082019050919050565b5f6020820190508181035f830152611114816110db565b9050919050565b7f5061757361626c653a20706175736564000000000000000000000000000000005f82015250565b5f61114f601083610cee565b915061115a8261111b565b602082019050919050565b5f6020820190508181035f83015261117c81611143565b9050919050565b7f436f696e44656c74614261746368446570736f69743a20796f752063616e20645f8201527f65706f736974206f6e6c79203120746f20313030206e6f64657320706572207460208201527f72616e73616374696f6e00000000000000000000000000000000000000000000604082015250565b5f611203604a83610cee565b915061120e82611183565b606082019050919050565b5f6020820190508181035f830152611230816111f7565b9050919050565b7f4e487b71000000000000000000000000000000000000000000000000000000005f52601160045260245ffd5b5f61126e82610d8c565b915061127983610d8c565b925082820261128781610d8c565b9150828204841483151761129e5761129d611237565b5b5092915050565b7f436f696e44656c74614261746368446570736f69743a2074686520616d6f756e5f8201527f74206f662045544820646f6573206e6f74206d617463682074686520616d6f7560208201527f6e74206f66206e6f646573000000000000000000000000000000000000000000604082015250565b5f611325604b83610cee565b9150611330826112a5565b606082019050919050565b5f6020820190508181035f83015261135281611319565b9050919050565b7f436f696e44656c74614261746368446570736f69743a20616d6f756e74206f665f8201527f20706172616d657465727320646f206e6f206d61746368000000000000000000602082015250565b5f6113b3603783610cee565b91506113be82611359565b604082019050919050565b5f6020820190508181035f8301526113e0816113a7565b9050919050565b7f4e487b71000000000000000000000000000000000000000000000000000000005f52603260045260245ffd5b5f80fd5b5f80fd5b5f80fd5b5f808335600160200384360303811261143c5761143b611414565b5b80840192508235915067ffffffffffffffff82111561145e5761145d611418565b5b60208301925060018202360383131561147a5761147961141c565b5b509250929050565b7f436f696e44656c74614261746368446570736f69743a2077726f6e67207075625f8201527f6b65790000000000000000000000000000000000000000000000000000000000602082015250565b5f6114dc602383610cee565b91506114e782611482565b604082019050919050565b5f6020820190508181035f830152611509816114d0565b9050919050565b7f436f696e44656c74614261746368446570736f69743a2077726f6e67207769745f8201527f6864726177616c2063726564656e7469616c7300000000000000000000000000602082015250565b5f61156a603383610cee565b915061157582611510565b604082019050919050565b5f6020820190508181035f8301526115978161155e565b9050919050565b7f436f696e44656c74614261746368446570736f69743a2077726f6e67207369675f8201527f6e61747572657300000000000000000000000000000000000000000000000000602082015250565b5f6115f8602783610cee565b91506116038261159e565b604082019050919050565b5f6020820190508181035f830152611625816115ec565b9050919050565b5f82825260208201905092915050565b828183375f83830152505050565b5f601f19601f8301169050919050565b5f611665838561162c565b935061167283858461163c565b61167b8361164a565b840190509392505050565b5f819050919050565b61169881611686565b82525050565b5f6080820190508181035f8301526116b781898b61165a565b905081810360208301526116cc81878961165a565b905081810360408301526116e181858761165a565b90506116f0606083018461168f565b98975050505050505050565b5f61170682610d8c565b91507fffffffffffffffffffffffffffffffffffffffffffffffffffffffffffffffff820361173857611737611237565b5b600182019050919050565b5f6040820190506117565f830185610fc2565b6117636020830184610d95565b9392505050565b7f4f776e61626c653a206e6577206f776e657220697320746865207a65726f20615f8201527f6464726573730000000000000000000000000000000000000000000000000000602082015250565b5f6117c4602683610cee565b91506117cf8261176a565b604082019050919050565b5f6020820190508181035f8301526117f1816117b8565b9050919050565b7f5061757361626c653a206e6f74207061757365640000000000000000000000005f82015250565b5f61182c601483610cee565b9150611837826117f8565b602082019050919050565b5f6020820190508181035f83015261185981611820565b905091905056fea26469706673582212207ed33588d424cf65302b1af08fc7f8fae94b7035e92e4306e17d7f2577c4164964736f6c63430008150033",
  "immutableReferences": {},
  "source": "/* \r\n           \r\n    \r\n                     \r\n                    \r\n      \r\n                                                                              \r\n */\r\n                                                                                                                                                                  \r\n// SPDX-License-Identifier: MIT\r\n\r\n\r\n\r\npragma solidity ^0.8.0;\r\n\r\n// This interface is designed to be compatible with the Vyper version.\r\n/// @notice This is the Ethereum 2.0 deposit contract interface.\r\n/// For more information see the Phase 0 specification under https://github.com/ethereum/eth2.0-specs\r\ninterface IDepositContract {\r\n    /// @notice A processed deposit event.\r\n    event DepositEvent(\r\n        bytes pubkey,\r\n        bytes withdrawal_credentials,\r\n        bytes amount,\r\n        bytes signature,\r\n        bytes index\r\n    );\r\n\r\n    /// @notice Submit a Phase 0 DepositData object.\r\n    /// @param pubkey A BLS12-381 public key.\r\n    /// @param withdrawal_credentials Commitment to a public key for withdrawals.\r\n    /// @param signature A BLS12-381 signature.\r\n    /// @param deposit_data_root The SHA-256 hash of the SSZ-encoded DepositData object.\r\n    /// Used as a protection against malformed input.\r\n    function deposit(\r\n        bytes calldata pubkey,\r\n        bytes calldata withdrawal_credentials,\r\n        bytes calldata signature,\r\n        bytes32 deposit_data_root\r\n    ) external payable;\r\n\r\n    /// @notice Query the current deposit root hash.\r\n    /// @return The deposit root hash.\r\n    function get_deposit_root() external view returns (bytes32);\r\n\r\n    /// @notice Query the current deposit count.\r\n    /// @return The deposit count encoded as a little endian 64-bit number.\r\n    function get_deposit_count() external view returns (bytes memory);\r\n}\r\n\r\n// File: CoindeltaBatchDeposit/@openzeppelin/contracts/utils/ReentrancyGuard.sol\r\n\r\n\r\n\r\npragma solidity ^0.8.0;\r\n\r\n/**\r\n * @dev Contract module that helps prevent reentrant calls to a function.\r\n *\r\n * Inheriting from `ReentrancyGuard` will make the {nonReentrant} modifier\r\n * available, which can be applied to functions to make sure there are no nested\r\n * (reentrant) calls to them.\r\n *\r\n * Note that because there is a single `nonReentrant` guard, functions marked as\r\n * `nonReentrant` may not call one another. This can be worked around by making\r\n * those functions `private`, and then adding `external` `nonReentrant` entry\r\n * points to them.\r\n *\r\n * TIP: If you would like to learn more about reentrancy and alternative ways\r\n * to protect against it, check out our blog post\r\n * https://blog.openzeppelin.com/reentrancy-after-istanbul/[Reentrancy After Istanbul].\r\n */\r\nabstract contract ReentrancyGuard {\r\n    // Booleans are more expensive than uint256 or any type that takes up a full\r\n    // word because each write operation emits an extra SLOAD to first read the\r\n    // slot's contents, replace the bits taken up by the boolean, and then write\r\n    // back. This is the compiler's defense against contract upgrades and\r\n    // pointer aliasing, and it cannot be disabled.\r\n\r\n    // The values being non-zero value makes deployment a bit more expensive,\r\n    // but in exchange the refund on every call to nonReentrant will be lower in\r\n    // amount. Since refunds are capped to a percentage of the total\r\n    // transaction's gas, it is best to keep them low in cases like this one, to\r\n    // increase the likelihood of the full refund coming into effect.\r\n    uint256 private constant _NOT_ENTERED = 1;\r\n    uint256 private constant _ENTERED = 2;\r\n\r\n    uint256 private _status;\r\n\r\n    constructor () {\r\n        _status = _NOT_ENTERED;\r\n    }\r\n\r\n    /**\r\n     * @dev Prevents a contract from calling itself, directly or indirectly.\r\n     * Calling a `nonReentrant` function from another `nonReentrant`\r\n     * function is not supported. It is possible to prevent this from happening\r\n     * by making the `nonReentrant` function external, and make it call a\r\n     * `private` function that does the actual work.\r\n     */\r\n    modifier nonReentrant() {\r\n        // On the first call to nonReentrant, _notEntered will be true\r\n        require(_status != _ENTERED, \"ReentrancyGuard: reentrant call\");\r\n\r\n        // Any calls to nonReentrant after this point will fail\r\n        _status = _ENTERED;\r\n\r\n        _;\r\n\r\n        // By storing the original value once again, a refund is triggered (see\r\n        // https://eips.ethereum.org/EIPS/eip-2200)\r\n        _status = _NOT_ENTERED;\r\n    }\r\n}\r\n\r\n// File: CoindeltaBatchDeposit/@openzeppelin/contracts/utils/Context.sol\r\n\r\n\r\n\r\npragma solidity ^0.8.0;\r\n\r\n/*\r\n * @dev Provides information about the current execution context, including the\r\n * sender of the transaction and its data. While these are generally available\r\n * via msg.sender and msg.data, they should not be accessed in such a direct\r\n * manner, since when dealing with GSN meta-transactions the account sending and\r\n * paying for execution may not be the actual sender (as far as an application\r\n * is concerned).\r\n *\r\n * This contract is only required for intermediate, library-like contracts.\r\n */\r\nabstract contract Context {\r\n    function _msgSender() internal view virtual returns (address) {\r\n        return msg.sender;\r\n    }\r\n\r\n    function _msgData() internal view virtual returns (bytes calldata) {\r\n        this; // silence state mutability warning without generating bytecode - see https://github.com/ethereum/solidity/issues/2691\r\n        return msg.data;\r\n    }\r\n}\r\n\r\n// File: CoindeltaBatchDeposit/@openzeppelin/contracts/utils/Pausable.sol\r\n\r\n\r\n\r\npragma solidity ^0.8.0;\r\n\r\n\r\n/**\r\n * @dev Contract module which allows children to implement an emergency stop\r\n * mechanism that can be triggered by an authorized account.\r\n *\r\n * This module is used through inheritance. It will make available the\r\n * modifiers `whenNotPaused` and `whenPaused`, which can be applied to\r\n * the functions of your contract. Note that they will not be pausable by\r\n * simply including this module, only once the modifiers are put in place.\r\n */\r\nabstract contract Pausable is Context {\r\n    /**\r\n     * @dev Emitted when the pause is triggered by `account`.\r\n     */\r\n    event Paused(address account);\r\n\r\n    /**\r\n     * @dev Emitted when the pause is lifted by `account`.\r\n     */\r\n    event Unpaused(address account);\r\n\r\n    bool private _paused;\r\n\r\n    /**\r\n     * @dev Initializes the contract in unpaused state.\r\n     */\r\n    constructor () {\r\n        _paused = false;\r\n    }\r\n\r\n    /**\r\n     * @dev Returns true if the contract is paused, and false otherwise.\r\n     */\r\n    function paused() public view virtual returns (bool) {\r\n        return _paused;\r\n    }\r\n\r\n    /**\r\n     * @dev Modifier to make a function callable only when the contract is not paused.\r\n     *\r\n     * Requirements:\r\n     *\r\n     * - The contract must not be paused.\r\n     */\r\n    modifier whenNotPaused() {\r\n        require(!paused(), \"Pausable: paused\");\r\n        _;\r\n    }\r\n\r\n    /**\r\n     * @dev Modifier to make a function callable only when the contract is paused.\r\n     *\r\n     * Requirements:\r\n     *\r\n     * - The contract must be paused.\r\n     */\r\n    modifier whenPaused() {\r\n        require(paused(), \"Pausable: not paused\");\r\n        _;\r\n    }\r\n\r\n    /**\r\n     * @dev Triggers stopped state.\r\n     *\r\n     * Requirements:\r\n     *\r\n     * - The contract must not be paused.\r\n     */\r\n    function _pause() internal virtual whenNotPaused {\r\n        _paused = true;\r\n        emit Paused(_msgSender());\r\n    }\r\n\r\n    /**\r\n     * @dev Returns to normal state.\r\n     *\r\n     * Requirements:\r\n     *\r\n     * - The contract must be paused.\r\n     */\r\n    function _unpause() internal virtual whenPaused {\r\n        _paused = false;\r\n        emit Unpaused(_msgSender());\r\n    }\r\n}\r\n\r\n// File: CoindeltaBatchDeposit/@openzeppelin/contracts/access/Ownable.sol\r\n\r\n\r\n\r\npragma solidity ^0.8.0;\r\n\r\n/**\r\n * @dev Contract module which provides a basic access control mechanism, where\r\n * there is an account (an owner) that can be granted exclusive access to\r\n * specific functions.\r\n *\r\n * By default, the owner account will be the one that deploys the contract. This\r\n * can later be changed with {transferOwnership}.\r\n *\r\n * This module is used through inheritance. It will make available the modifier\r\n * `onlyOwner`, which can be applied to your functions to restrict their use to\r\n * the owner.\r\n */\r\nabstract contract Ownable is Context {\r\n    address private _owner;\r\n\r\n    event OwnershipTransferred(address indexed previousOwner, address indexed newOwner);\r\n\r\n    /**\r\n     * @dev Initializes the contract setting the deployer as the initial owner.\r\n     */\r\n    constructor () {\r\n        address msgSender = _msgSender();\r\n        _owner = msgSender;\r\n        emit OwnershipTransferred(address(0), msgSender);\r\n    }\r\n\r\n    /**\r\n     * @dev Returns the address of the current owner.\r\n     */\r\n    function owner() public view virtual returns (address) {\r\n        return _owner;\r\n    }\r\n\r\n    /**\r\n     * @dev Throws if called by any account other than the owner.\r\n     */\r\n    modifier onlyOwner() {\r\n        require(owner() == _msgSender(), \"Ownable: caller is not the owner\");\r\n        _;\r\n    }\r\n\r\n    /**\r\n     * @dev Leaves the contract without owner. It will not be possible to call\r\n     * `onlyOwner` functions anymore. Can only be called by the current owner.\r\n     *\r\n     * NOTE: Renouncing ownership will leave the contract without an owner,\r\n     * thereby removing any functionality that is only available to the owner.\r\n     */\r\n    function renounceOwnership() public virtual onlyOwner {\r\n        emit OwnershipTransferred(_owner, address(0));\r\n        _owner = address(0);\r\n    }\r\n\r\n    /**\r\n     * @dev Transfers ownership of the contract to a new account (`newOwner`).\r\n     * Can only be called by the current owner.\r\n     */\r\n    function transferOwnership(address newOwner) public virtual onlyOwner {\r\n        require(newOwner != address(0), \"Ownable: new owner is the zero address\");\r\n        emit OwnershipTransferred(_owner, newOwner);\r\n        _owner = newOwner;\r\n    }\r\n}\r\n\r\n// File: CoindeltaBatchDeposit/Users/Coindelta/BatchDepsoit/solidity/truffle/projects/coindelta-eth2depositor/contracts/CoindeltaBatchDeposit.sol\r\n\r\n/* \r\n           \r\n    \r\n                     \r\n                    \r\n      \r\n                                                                              \r\n */\r\n\r\n\r\npragma solidity ^0.8.0;\r\n\r\n\r\n\r\n\r\n\r\ncontract CoinDeltaBatchDepsoit is ReentrancyGuard, Pausable, Ownable {\r\n\r\n    /**\r\n     * @dev Eth2 Deposit Contract address.\r\n     */\r\n    IDepositContract public depositContract;\r\n\r\n    /**\r\n     * @dev Minimal and maximum amount of nodes per transaction.\r\n     */\r\n    uint256 public constant nodesMinAmount = 1;\r\n    uint256 public constant nodesMaxAmount = 100;\r\n    uint256 public constant pubkeyLength = 48;\r\n    uint256 public constant credentialsLength = 32;\r\n    uint256 public constant signatureLength = 96;\r\n\r\n    /**\r\n     * @dev Collateral size of one node.\r\n     */\r\n    uint256 public constant collateral = 32 ether;\r\n\r\n    /**\r\n     * @dev Setting Eth2 Smart Contract address during construction.\r\n     */\r\n    constructor(bool mainnet, address depositContract_) {\r\n        if (mainnet == true) {\r\n            depositContract = IDepositContract(0x00000000219ab540356cBB839Cbe05303d7705Fa);\r\n        } else if (depositContract_ == 0x0000000000000000000000000000000000000000) {\r\n            depositContract = IDepositContract(0x8c5fecdC472E27Bc447696F431E425D02dd46a8c);\r\n        } else {\r\n            depositContract = IDepositContract(depositContract_);\r\n        }\r\n    }\r\n\r\n    /**\r\n     * @dev This contract will not accept direct ETH transactions.\r\n     */\r\n    receive() external payable {\r\n        revert(\"CoinDeltaBatchDepsoit: do not send ETH directly here\");\r\n    }\r\n\r\n    /**\r\n     * @dev Function that allows to deposit up to 100 nodes at once.\r\n     *\r\n     * - pubkeys                - Array of BLS12-381 public keys.\r\n     * - withdrawal_credentials - Array of commitments to a public keys for withdrawals.\r\n     * - signatures             - Array of BLS12-381 signatures.\r\n     * - deposit_data_roots     - Array of the SHA-256 hashes of the SSZ-encoded DepositData objects.\r\n     */\r\n    function deposit(\r\n        bytes[] calldata pubkeys,\r\n        bytes[] calldata withdrawal_credentials,\r\n        bytes[] calldata signatures,\r\n        bytes32[] calldata deposit_data_roots\r\n    ) external payable whenNotPaused {\r\n\r\n        uint256 nodesAmount = pubkeys.length;\r\n\r\n        require(nodesAmount > 0 && nodesAmount <= 100, \"CoinDeltaBatchDepsoit: you can deposit only 1 to 100 nodes per transaction\");\r\n        require(msg.value == collateral * nodesAmount, \"CoinDeltaBatchDepsoit: the amount of ETH does not match the amount of nodes\");\r\n\r\n\r\n        require(\r\n            withdrawal_credentials.length == nodesAmount &&\r\n            signatures.length == nodesAmount &&\r\n            deposit_data_roots.length == nodesAmount,\r\n            \"CoinDeltaBatchDepsoit: amount of parameters do no match\");\r\n\r\n        for (uint256 i = 0; i < nodesAmount; ++i) {\r\n            require(pubkeys[i].length == pubkeyLength, \"CoinDeltaBatchDepsoit: wrong pubkey\");\r\n            require(withdrawal_credentials[i].length == credentialsLength, \"CoinDeltaBatchDepsoit: wrong withdrawal credentials\");\r\n            require(signatures[i].length == signatureLength, \"CoinDeltaBatchDepsoit: wrong signatures\");\r\n\r\n            IDepositContract(address(depositContract)).deposit{value: collateral}(\r\n                pubkeys[i],\r\n                withdrawal_credentials[i],\r\n                signatures[i],\r\n                deposit_data_roots[i]\r\n            );\r\n\r\n        }\r\n\r\n        emit DepositEvent(msg.sender, nodesAmount);\r\n    }\r\n\r\n    /**\r\n     * @dev Triggers stopped state.\r\n     *\r\n     * Requirements:\r\n     *\r\n     * - The contract must not be paused.\r\n     */\r\n    function pause() public onlyOwner {\r\n      _pause();\r\n    }\r\n\r\n    /**\r\n     * @dev Returns to normal state.\r\n     *\r\n     * Requirements:\r\n     *\r\n     * - The contract must be paused.\r\n     */\r\n    function unpause() public onlyOwner {\r\n      _unpause();\r\n    }\r\n\r\n    event DepositEvent(address from, uint256 nodesAmount);\r\n}",
  "sourcePath": "/Users/apple/Documents/Coindelta/Projects/Eth-Batch-Deposit-Smart-Contract/contracts/CoinDeltaBatchDepsoit.sol",
  "compiler": {
    "name": "solc",
    "version": "0.8.21+commit.d9974bed.Emscripten.clang"
  },
  "schemaVersion": "3.4.16",
  "updatedAt": "2023-11-08T12:16:19.166Z",
  "devdoc": {
    "events": {
      "Paused(address)": {
        "details": "Emitted when the pause is triggered by `account`."
      },
      "Unpaused(address)": {
        "details": "Emitted when the pause is lifted by `account`."
      }
    },
    "kind": "dev",
    "methods": {
      "constructor": {
        "details": "Setting Eth2 Smart Contract address during construction."
      },
      "deposit(bytes[],bytes[],bytes[],bytes32[])": {
        "details": "Function that allows to deposit up to 100 nodes at once. - pubkeys                - Array of BLS12-381 public keys. - withdrawal_credentials - Array of commitments to a public keys for withdrawals. - signatures             - Array of BLS12-381 signatures. - deposit_data_roots     - Array of the SHA-256 hashes of the SSZ-encoded DepositData objects."
      },
      "owner()": {
        "details": "Returns the address of the current owner."
      },
      "pause()": {
        "details": "Triggers stopped state. Requirements: - The contract must not be paused."
      },
      "paused()": {
        "details": "Returns true if the contract is paused, and false otherwise."
      },
      "renounceOwnership()": {
        "details": "Leaves the contract without owner. It will not be possible to call `onlyOwner` functions anymore. Can only be called by the current owner. NOTE: Renouncing ownership will leave the contract without an owner, thereby removing any functionality that is only available to the owner."
      },
      "transferOwnership(address)": {
        "details": "Transfers ownership of the contract to a new account (`newOwner`). Can only be called by the current owner."
      },
      "unpause()": {
        "details": "Returns to normal state. Requirements: - The contract must be paused."
      }
    },
    "stateVariables": {
      "collateral": {
        "details": "Collateral size of one node."
      },
      "depositContract": {
        "details": "Eth2 Deposit Contract address."
      },
      "nodesMinAmount": {
        "details": "Minimal and maximum amount of nodes per transaction."
      }
    },
    "version": 1
  },
  "userdoc": {
    "kind": "user",
    "methods": {},
    "version": 1
  }
}